:020000040800F2
:10000000280C0020451D0008C9030008CB03000888
:10001000CF030008D3030008D70300080000000046
:10002000000000000000000000000000DB030008EA
:10003000DD03000800000000DF030008E103000802
:100040005F1D00085F1D00085F1D00085F1D0008A0
:100050005F1D00085F1D0008E70200081703000885
:100060002F030008470300085F1D0008550D000816
:100070005F1D00085F1D00085F1D00085F1D000870
:100080005F1D00085F1D00085F1D00085F1D000860
:100090005F1D00085F1D00085F1D00085F1D000850
:1000A0005F1D00085F1D00085F1D00085F1D000840
:1000B000A5020008BB020008D10200085F1D00086D
:1000C0005F1D00085F1D00085F1D00085F1D000820
:1000D0005F1D0008BB1C00085F1D00085F1D0008B5
:1000E0005F1D00085F1D00085F1D00085F1D000800
:1000F0005F1D00085F1D00085F1D00085F1D0008F0
:100100005F1D00085F1D00085F1D00085F1D0008DF
:100110005F1D00085F1D00085F1D00085F1D0008CF
:100120005F1D00085F1D00085F1D00085F1D0008BF
:1001300000F002F800F03FF80AA090E8000C8244BA
:100140008344AAF10107DA4501D100F034F8AFF297
:10015000090EBAE80F0013F0010F18BFFB1A43F0A5
:1001600001031847A8670000C8670000103A24BFC1
:1001700078C878C1FAD8520724BF30C830C144BF0C
:1001800004680C607047000000230024002500264E
:10019000103A28BF78C1FBD8520728BF30C148BFEA
:1001A0000B607047642904F06381002070471FB51D
:1001B0001FBD10B510BD04F0F8FA1146FFF7F7FFA8
:1001C00000F008F804F016FB03B4FFF7F2FF03BCDD
:1001D00001F018FD4FF4A06001F0D4FD01F0A8FC7F
:1001E0004FF4E13001F01DFD00F064FF01F03BFC35
:1001F00000F03EFE00F0DCFD00F08EFC00F0E2F9C5
:1002000000F022FF00F0A6FE01F0EBF85B48018849
:10021000002004F0A6F80121594803F046FB01F044
:10022000A1F80C2357A23021002001F074FB01F04B
:10023000E4F836E01021574800F09DFD564908804B
:100240000846008804F064FE06464FF08B4104F037
:100250007DFD0546514904F06FFE044604F038FE6A
:100260004F49088045480188002004F07AF84C483E
:1002700001884CA004F0B4F84DA004F0B1F832218C
:100280004C4804F0B8F94648028846A1494804F0B1
:10029000B3F81023474A0021084601F03CFB01F067
:1002A000ACF8C7E710B50121880703F052F818B180
:1002B0000121880703F05EF810BD10B501213E480A
:1002C00003F047F818B101213B4803F053F810BD83
:1002D00010B50121394803F03CF818B10121374825
:1002E00003F048F810BD10B50A2001F05EFC0121B2
:1002F000334801F0A8FE50B920480088C8381F498B
:10030000088008460088C82801DAC8200880012033
:1003100003F00FFE10BD10B50A2001F046FC0221CB
:10032000284801F090FE022003F003FE10BD10B536
:100330000A2001F03AFC0421224801F084FE042046
:1003400003F0F7FD10BD10B50A2001F02EFC0821C6
:100350001C4801F078FE60B908480088C830074999
:10036000088008460088B0F57A6F02DD4FF47A60A5
:100370000880082003F0DDFD10BD00001200002001
:10038000002401405A48522D32313232313238394C
:10039000000000004C0000201000002000404E45EE
:1003A0000E000020414476616C3A2534646D56009D
:1003B0000A0A0000CC0000200004004000080040B1
:1003C0000008014000100140704700BFFEE700BF79
:1003D000FEE700BFFEE700BFFEE7704770477047CB
:1003E000704700000CB50020019000906C48006838
:1003F00040F480306A49086000BF6948006800F432
:10040000003000900198401C0190009818B90198A4
:10041000B0F5A06FF1D16248006800F4003010B16F
:100420000120009001E0002000900098012843D1B5
:100430005C48006840F010005A49086008460068AF
:1004400020F0030008600846006840F002000860E1
:10045000534840685249486008464068486008462A
:10046000406840F4806048600846406820F47C1092
:1004700048600846406840F4E81048600846006854
:1004800040F08070086000BF4548006800F00070D0
:100490000028F9D04248406820F0030040494860F5
:1004A0000846406840F00200486000BF3C48406891
:1004B00000F00C000828F9D10CBD10B5FFF792FF31
:1004C00010BD10B53648006840F00100344908609E
:1004D0000846406834490840314948600846006889
:1004E000324908402E4908600846006820F4802000
:1004F00008600846406820F4FE0048604FF41F0082
:100500008860FFF7DAFF4FF000602949086010BDEE
:1005100010B5002100200022214B5B6803F00C0184
:1005200021B1042906D0082928D107E0214B224C0B
:10053000236027E01F4B204C236023E0184B5B68AF
:1005400003F47010164B5B6803F48032022303EB54
:10055000904022B9194B4343174C23600DE0104BD8
:100560005B6803F4003323B1144B4343124C236004
:1005700003E0104B4343104C236003E00D4B0E4C43
:10058000236000BF00BF064B5B68C3F303130C4C32
:10059000E15C094B1B68CB40074C236010BD000099
:1005A00000100240002002400000FFF8FFFFF6FEAE
:1005B00008ED00E000127A001400002000093D0060
:1005C0001800002008B501215C2001F065FF4AF603
:1005D0008020ADF8000010208DF8030003208DF876
:1005E00002006946FE4801F09BFC4AF68021FC4867
:1005F00001F045FD4020ADF800006946F94801F0E2
:100600008FFC4021F74801F03AFD0120ADF80000D1
:100610006946F54801F084FC0121F34801F02FFD03
:100620001020ADF800006946F04801F079FC102177
:10063000EE4801F024FD08BD70B504460020EC49E9
:10064000086000251DE00020E949083108600A2003
:1006500001F087FA04F0800020B10120E44910394C
:10066000086003E00020E249103908600120E049F9
:10067000083108600A2001F074FA6006040E681C54
:10068000C5B2082DDFDB0120D949086070BD70B507
:10069000044600251CE00020D549083108600A20E6
:1006A00001F05FFA04F0010020B10120D0491039B7
:1006B000086003E00020CE49103908600120CC49D1
:1006C000083108600A2001F04CFA6410681CC5B2B9
:1006D000082DE0DB0020C64908600120C549C1F8AB
:1006E000B40170BD70B504460D460020C2490860D3
:1006F000C249C1F88001BE4918390860C049086084
:10070000BB49083908602846FFF796FF012C03D142
:100710000120B949086011E0022C03D10120B94938
:1007200008600BE0032C04D10120B149183908609E
:1007300004E0042C02D10120B149086070BD0146DB
:1007400041296FD02BDC0E296DD009DC6CD2DFE89B
:1007500001F05A5D6063666C6F72757882A385A83C
:1007600034295DD010DC30294ED006DC0F297BD037
:100770002D2969D02E2957D168E0312947D0322957
:1007800048D03329F7D148E0A1F13502092ADDD25A
:10079000DFE802F04C4F525558A2A2A25F00632935
:1007A0007DD01CDC4E296AD00ADCA1F143020A2A62
:1007B000CCD2DFE802F05491575A5C5E91609162AE
:1007C000552965D006DC4F295CD050295CD05329CF
:1007D000D1D15BE05F295DD062297DD15DE0A1F1DF
:1007E00064021C2A78D2DFE802F05D5F77616365FE
:1007F0007777777767696B6D6F77717377777775D1
:1008000077777777777800BF3F2068E000BF0620D2
:1008100065E000BF5B2062E000BF4F205FE000BFEB
:1008200066205CE018E01CE056E000BF6D2056E05A
:1008300000BF7D2053E000BF072050E000BF7F20B5
:100840004DE000BF6F204AE0402048E0802046E0B5
:100850000AE0482043E000BF772040E000BF392095
:100860003DE000BF79203AE000BF712037E07D20F5
:1008700035E0762033E01E2031E038202FE03720AD
:100880002DE00CE03F202AE0732028E06D2026E0D8
:100890003E2024E0082022E000BF7C201FE05820FA
:1008A0001DE000BF5E201AE07B2018E06F2016E0FC
:1008B000742014E0102012E0542010E05C200EE0C0
:1008C00073200CE067200AE0502008E0782006E062
:1008D0001C2004E06E2002E000BF002000BF00BF2B
:1008E000704710B50020444908604449C1F88001B0
:1008F0003F4918390860424908603E49C1F8AC01D7
:1009000041494878FFF71BFF0446FFF795FE012099
:100910003E49C1F8900101F048F900203B49C1F877
:10092000900139498878FFF70AFF0446FFF784FEF3
:1009300001203249C1F8800101F037F900202F4928
:10094000C1F880013049C878FFF7F9FE0446FFF787
:1009500073FE01202749C1F89C0101F026F900200F
:100960002449C1F89C0128490879FFF7E8FE0446AC
:10097000FFF762FE01202649C1F8980101F015F940
:1009800000201F49086010BD10B500201A490860FA
:100990001A49C1F8800116491839086018490860D9
:1009A0001449C1F8AC011B494878FFF745FE012006
:1009B0001649C1F8900101F0F8F800201349C1F878
:1009C000900114498878FFF737FE01200B49C1F8E0
:1009D000800101F0EAF800200849C1F880011BE01D
:1009E0000018014000080140000C014000100140C7
:1009F000B4012342000023429001224200802142A0
:100A00009801214280812142000000200000224202
:100A100000002142050000203649C878FFF70CFE8F
:100A200001203549C1F89C0101F0BFF8002032498E
:100A3000C1F89C012F490879FFF7FEFD01202F49DD
:100A4000C1F8980101F0B1F800202D49086010BDEF
:100A50002DE9F04107460C4615461E46002029495F
:100A600008602949C1F880012849086024490860C4
:100A70002649103108603846FFF761FE8046FFF7CF
:100A8000DBFD01202249C1F8900101F08EF8002021
:100A90001C4908602046FFF752FE8046FFF7CCFD58
:100AA00001201949C1F8800101F07FF8002019499F
:100AB00008602846FFF743FE8046FFF7BDFD012092
:100AC0000D49C1F89C0101F070F800200F49086041
:100AD0003046FFF734FE8046FFF7AEFD01200749A0
:100AE000C1F8980101F061F8002005490860BDE8EF
:100AF000F081000005000020000023420000214298
:100B00009801214290012242008021429C0123420F
:100B1000000022428081214200B593B001210846A5
:100B200001F0ADFC01214FF4017001F0B5FC012191
:100B3000480201F0CBFC00214FF4007001F0C6FC2C
:100B40004FF4004001F00CFC0820ADF83400002008
:100B50008DF837000DA9904801F0E2F98F4802F0B6
:100B600011FE00200E908DF83C0001208DF83D0014
:100B70004FF4602010900020119001208DF8480063
:100B80000EA9864802F025FE002301220321834896
:100B900002F0B7FE824803F01DF880484C30029006
:100BA00080480390002004901020059000200690BB
:100BB00080200790400008908000099020200A9033
:100BC00000020B9000200C9002A9754803F0A4F8D5
:100BD00001220221724803F0D6F80B208DF80400A0
:100BE00000208DF805008DF8060001208DF8070023
:100BF00001A801F0CCF80121684802F021FE012192
:100C0000664802F012FE654802F031FE00BF6348FC
:100C100002F032FE0028FAD1604802F037FE00BF31
:100C20005E4802F038FE0028FAD101215C4803F04A
:100C30009EF813B000BD00B593B00121084601F045
:100C40001EFC01214FF4017001F026FC0121480235
:100C500001F03CFC00214FF4007001F037FC4FF430
:100C6000004001F07DFB0220ADF8340000208DF83B
:100C700037000DA94C4801F053F9484802F082FDB5
:100C800000200E908DF83C0001208DF83D004FF4BF
:100C9000602010900020119001208DF848000EA9CE
:100CA0003E4802F096FD0023012209213B4802F054
:100CB00028FE3B4802F08EFF38484C3002903948FD
:100CC00003900020049010200590002006908020C2
:100CD0000790400008908000099020200A900002B0
:100CE0000B9000200C9002A92D4803F015F801226A
:100CF00002212B4803F047F80B208DF80400002058
:100D00008DF805008DF8060001208DF8070001A878
:100D100001F03DF80121214802F092FD01211F4818
:100D200002F083FD1D4802F0A2FD00BF1B4802F047
:100D3000A3FD0028FAD1194802F0A8FD00BF17480A
:100D400002F0A9FD0028FAD10121154803F00FF89F
:100D500013B000BD10B5022003F043F850B10021DC
:100D60000E4802F0A2FD45F2D5501049088002203D
:100D700003F04BF810BD10B502460023002404E038
:100D800010880344921C601CC4B28C42F8DBB3FB95
:100D9000F1F080B210BD00000008014000240140C5
:100DA000080002404C000020000C01400A00002016
:100DB00000B585B00121042001F06EFB0121480738
:100DC00001F077FB1020ADF8100000208DF8130023
:100DD00003208DF8120004A9214801F0A1F8102188
:100DE0001F4801F04AF90020009001900290022073
:100DF00003906946002003F036FA0121002003F039
:100E00004FFA0021084603F0ACFA05B000BD2DE909
:100E1000F0410646304603F088FE04460D460022A7
:100E2000104B2046294603F0FBFC04460D460022E9
:100E30000D4B2046294603F08BFE07464FF06632E5
:100E40000A4B03F0EDFC04460D462046294603F00C
:100E50003FFE87B23946002003F083FABDE8F081F7
:100E60000008014000408F400000B04066660A4024
:100E70000EB500F06FF80121084601F00DFB0121CD
:100E8000022001F063F90220019000208DF8080093
:100E90000C208DF8090001208DF80A0001A802F04D
:100EA000D1FF0221084601F051F90420019001A868
:100EB00002F0C8FF0321022001F048F90820019048
:100EC00001A802F0BFFF0021084601F03FF9012010
:100ED00001900C208DF8090001A802F0B3FF062054
:100EE0008DF8000002208DF8010003208DF802002B
:100EF00001208DF80300684600F049FF07208DF8B7
:100F0000000002208DF801008DF8020001208DF80C
:100F10000300684600F03BFF08208DF80000022027
:100F20008DF8010001208DF802008DF8030068465D
:100F300000F02DFF09208DF8000002208DF801003F
:100F400000208DF8020001208DF80300684600F0B3
:100F50001EFF0EBD08B50121142001F09DFA0E20E0
:100F6000ADF8000048208DF803006946334800F0D2
:100F7000D7FF0120ADF800006946314800F0D0FFEE
:100F800008BD10B5044614B101202E4908702D4843
:100F90000078002835D00421284801F054F870B1B9
:100FA0000221264801F04FF848B10121244801F000
:100FB0004AF820B10821214801F045F808BB0A2071
:100FC00000F0F3FD00201F49087004211B4801F0C8
:100FD0003AF808B9012010BD0221184801F033F891
:100FE00008B90220F7E70121154801F02CF808B9EB
:100FF0000320F0E70821114801F025F8D8B90420B2
:10100000E9E704210D4801F01EF8012813D102215F
:101010000A4801F018F801280DD10121084801F013
:1010200012F8012807D10821044801F00CF8012822
:1010300001D1044908700020CDE7000000100140F4
:10104000000801402800002008B501214C2001F0D3
:1010500023FA0220ADF8000010208DF803000320D1
:101060008DF802006946104800F05AFF02210E4830
:1010700001F003F84FF48070ADF8000069460B48AA
:1010800000F04EFF4FF48071084800F0F6FF40205A
:10109000ADF800006946064800F042FF40210448D0
:1010A00000F0EBFF08BD000000080140000C01400B
:1010B0000018014008B50121082001F0EDF94FF4B6
:1010C0004060ADF8000014208DF8030003208DF877
:1010D00002006946804800F023FF01207F49086034
:1010E0007F49C1F8AC0108BD10B57B48001D006800
:1010F00040F440507849091D086001207749091DD6
:1011000008607749C1F8A801042000F02AFD0020FA
:101110007249091D0860042000F023FD0020704979
:10112000C1F8A80110BD10B56B48001D006840F45F
:1011300040506949091D08600020684908606849F5
:10114000C1F8AC01042000F00CFD012063490860E7
:101150006349C1F8AC01042000F003FD10BD10B5D7
:1011600000245D48001D006820F440505A49091DC4
:10117000086001205949091D086000F0F2FC0120B7
:101180005749C1F8A80100F0ECFC07E0601CC4B2AC
:10119000FA2C03DDFFF7C7FF012010BD4F487C3854
:1011A00000680028F2D14D49086000BFF5E710B58E
:1011B00000204A4908604848001D006840F440503B
:1011C0004549091D086000204549C1F8AC010220CD
:1011D00000F0C7FC012041490860022000F0C1FC7A
:1011E00000203F49C1F8A80110BD10B500203B49BF
:1011F00008603948001D006840F440503649091D18
:10120000086001203649C1F8AC01022000F0A9FCB9
:10121000012032490860022000F0A3FC0020304980
:10122000C1F8A80110BD70B504462B48001D006828
:1012300040F440502849091D0860002027490860F3
:10124000002517E0E0092549091D08606006040E25
:10125000022000F086FC01202149C1F8A8010220EB
:1012600000F07FFC00201D490860022000F079FC9E
:10127000681CC5B2082DE5DB70BD70B505460024BD
:101280001548001D006820F440501349091D0860EE
:10129000002616E0002011490860022000F061FCE1
:1012A00001200F49C1F8A8016006040E0B487C38E4
:1012B000006808B1601CC4B2012000F052FC701C30
:1012C000C6B2082EE6DB15B9FFF78FFF01E0FFF786
:1012D0006EFF204670BD0000000C0140A881214235
:1012E0000080214210B50446FFF7FEFE7820FFF78C
:1012F0009AFFFFF734FF0020FFF795FFFFF72FFF5E
:101300002046FFF790FFFFF72AFFFFF70CFF10BD05
:1013100010B50446FFF7E8FE7820FFF784FFFFF7DB
:101320001EFF4020FFF77FFFFFF719FF2046FFF762
:101330007AFFFFF714FFFFF7F6FE10BD10B5044665
:10134000102141EA2410FFF7CDFF04F00F00FFF752
:10135000C9FF10BD10B5044604F1B001C8B2FFF7D3
:10136000C1FF10BD70B5002410E02046FFF7F2FF6A
:101370000020FFF7E3FF002504E00020FFF7C8FF8F
:10138000681CC5B2802DF8DB601CC4B2082CECDBF5
:1013900070BD70B5002410E02046FFF7DBFF002091
:1013A000FFF7CCFF002504E0FF20FFF7B1FF681C2A
:1013B000C5B2802DF8DB601CC4B2082CECDB70BD1C
:1013C00070B505460C4645F0B000FFF78BFF1021C5
:1013D00041EA1410FFF786FF04F00F00FFF782FFC9
:1013E00070BD10B5002405E0F949085DFFF77AFFEC
:1013F000601CC4B2192CF7DB10BD70B5002413E0DB
:101400002046FFF7A7FF0020FFF798FF002507E021
:10141000F04901EBC501085DFFF77AFF681CC5B212
:10142000802DF5DB601CC4B2082CE9DB70BD70B503
:1014300000240CE0002506E00020E64901EBC50190
:101440000855681CC5B2802DF6DB601CC4B2082CA0
:10145000F0DBFFF7D2FF70BDF0B5144600267F2801
:1014600001DC3F2900DDF0BD0B46CF1701EB5777BC
:10147000FF10C7F10707FAB2CF1701EB5777FF103C
:10148000A1EBC707FDB2C5F107070123BB40DEB2E0
:101490004CB1D04B03EBC0039B5C3343CD4F07EB08
:1014A000C007BB5408E0CB4B03EBC0039B5CB343CA
:1014B000C84F07EBC007BB5400BFD4E72DE9FF4F6F
:1014C00083B08146002002908346CDF804900498B2
:1014D00000900598A0EB0900C5B206990498081A77
:1014E000C6B2002D01DD012705E00DB9002702E09D
:1014F000FF276842C5B2002E02DD4FF0010807E069
:1015000016B94FF0000803E04FF0FF087042C6B272
:10151000B54201DD2C4600E034464FF0000A25E0DC
:101520000122DDE90010FFF797FF02982844C0B2BE
:1015300002900BEB060000F0FF0B0298A04207DDC3
:101540000298001BC0B2029001983844C0B20190CA
:10155000A34507DDABEB040000F0FF0B009840440F
:10156000C0B200900AF1010000F0FF0A601C824541
:10157000D6DD07B0BDE8F08F2DE9F04306460F46F3
:10158000904600244FFA88F50320A0EB48004FFA5C
:1015900080F94AE07A1BD1B23219D0B20122FFF7AA
:1015A0005BFF3A1BD1B27219D0B20122FFF754FF90
:1015B0003A19D1B27219D0B20122FFF74DFF7A1950
:1015C000D1B23219D0B20122FFF746FF7A19D1B257
:1015D000321BD0B20122FFF73FFF3A19D1B2721B82
:1015E000D0B20122FFF738FF7A1BD1B2321BD0B242
:1015F0000122FFF731FF3A1BD1B2721BD0B2012298
:10160000FFF72AFF601C44B2B9F1000F05DAA00011
:10161000801D48444FFA80F907E0601B80000A30C3
:1016200048444FFA80F9681E45B2AC42B2DDBDE8CD
:10163000F083F0B504460D4616461F462B4632464B
:1016400029462046FFF73AFF3B46224629462046D8
:10165000FFF734FF3B46324639462046FFF72EFF60
:101660003B46324629463046FFF728FFF0BD2DE9BC
:10167000F04706460F4690469946DDF820A03446CE
:101680000CE03D4606E0524629462046FFF7E4FEC0
:10169000681CC5B24D45F6DD601CC4B24445F0DDA2
:1016A000FFF7ABFEBDE8F0872DE9F84F80460F4607
:1016B00016461C46BA462046E31704EB5373DB106C
:1016C00021464FEAE47C04EB5C7C4FEAEC0CA4EB93
:1016D000CC0CBCF1000F02D04FF0010C01E04FF038
:1016E000000C6344224604EBD27C4FEA6C0C03FBF3
:1016F0000CF303F0FF0BA6F12000C6B200254EE06C
:101700000C2C07D106EB4600334901EB8000405D0D
:10171000009013E0102C05D1304800EB0610405D1E
:1017200000900BE0182C07D106EBC6002C4901EB0A
:101730008000405D009001E0BDE8F88F4FF00009A7
:1017400027E0009800F0800028B1394640460A9A08
:10175000FFF782FE09E00A9808B9012000E00020A6
:10176000024639464046FFF777FE00984006000ED5
:101770000090781CC7B2A7EB0A00A04205D15746DB
:1017800008F1010000F0FF0806E009F1010000F097
:10179000FF09B9F1080FD4DB00BF681CC5B25D4575
:1017A000AEDB00BFC8E72DE9F84F80460D46144672
:1017B0001F46AB46202000900AA080B2A04201D173
:1017C000002418E008A080B2A0420FD1002412E04B
:1017D000F0680008FE000020D050000844550008C2
:1017E000345B0008D6EC0000BAC600008FA080B2BF
:1017F000A04200D10024002633E08D4800EB4410C5
:1018000010F806904FF0000A25E009F0800028B19A
:101810003A4629464046FFF71FFE08E00FB901206F
:1018200000E00020024629464046FFF715FE4FEA39
:1018300049604FEA1069681CC5B2A5EB0B0010287F
:1018400005D15D4608F1010000F0FF0806E00AF14D
:10185000010000F0FF0ABAF1080FD6DB00BF701CD0
:10186000C6B200988642C8DBBDE8F88F10B50246C4
:10187000012000E050430B1EA1F10104E1B2F9D1B7
:1018800010BD2DE9FF4F81B0074691461E460E9DC3
:101890004FF0000A002439E0301B401EC1B20A207C
:1018A000FFF7E4FFB9FBF0F00A21B0FBF1F201FB16
:1018B0001208BAF1000F16D1701EA04213DDB8F164
:1018C000000F0ED10120AB4605EBDB71491001FB87
:1018D00004710090C8B22B4620220299FFF7E4FE63
:1018E00012E04FF0010A0120AB4605EBDB71491015
:1018F00001FB04710090C8B208F13001CAB22B4656
:101900000299FFF7D1FE00BF601CC4B2B442C3DB32
:1019100005B0BDE8F08FF8B506460F4615461C46E3
:1019200021E004EBD4714910C1F18001B14202DA27
:1019300000263819C7B2C4F14000B84204DA0020CA
:1019400006460746FFF773FD012000902A782346DC
:1019500039463046FFF7A8FE204604EBD07106EB6F
:101960006101CEB26D1C28787E2802DC2878202800
:10197000D7DAF8BD70B50446002511E02846FFF718
:10198000E9FC0020FFF7DAFC002605E014F8010B63
:10199000FFF7BEFC701CC6B2802EF7DB681CC5B218
:1019A000082DEBDB70BD2DE9F0410446002514E065
:1019B0002846FFF7CFFC0020FFF7C0FC002608E018
:1019C00014F8017BF843C7B23846FFF7A1FC701C3E
:1019D000C6B2802EF4DB681CC5B2082DE8DBBDE87A
:1019E000F0812DE9F05F04460E4617469846DDF873
:1019F00028A04FF0000B454614E021462846FFF78B
:101A0000DFFCA1460AE059460BF1010B1AF8010070
:101A1000FFF77EFC09F1010000F0FF09B945F2DB98
:101A2000681EC5B2B542E8DABDE8F09FC8BB000049
:101A30009068000810B5044600BF02213A4802F041
:101A4000D0FB0028F9D02146374802F077FB00BFD1
:101A50000121354802F0C5FB0028F9D0324802F0D8
:101A60006FFBC0B210BD00B587B00121082000F0A7
:101A700013FD0121880300F01CFD4FF46040ADF818
:101A8000180018208DF81B0003208DF81A0006A9F5
:101A9000264800F045FA4FF46041244800F0EDFA82
:101AA0000121880300F01FFD00214FF4804000F069
:101AB0001AFD0020ADF804004FF48270ADF8060066
:101AC0000020ADF808000220ADF80A000120ADF8B2
:101AD0000C004002ADF80E003820ADF810000020D8
:101AE000ADF812000720ADF8140001A90E4802F06D
:101AF0004FFA01210C4802F0F0FAFF20FFF79AFF9D
:101B000007B000BD10B50446074800884FF6C771FE
:101B100008400549088008460088204308800121C4
:101B2000014802F0DAFA10BD00380040000C014014
:101B300010B56FF0040000F074F92E4800682E49CB
:101B4000B0FBF1F02D4908700846007800EB400129
:101B5000C1EBC0104FF6FF7101EAC00028490880B0
:101B600010BD0146254A12784A434FF0E0235A61DE
:101B700000229A611A46126942F001021A6100BFFE
:101B80004FF0E022106900F001021AB100F4803237
:101B9000002AF5D04FF0E022126922F001024FF046
:101BA000E0231A6100229A6170470146144A1288A4
:101BB0004A434FF0E0235A6100229A611A461269A3
:101BC00042F001021A6100BF4FF0E022106900F0FC
:101BD00001021AB100F48032002AF5D04FF0E02261
:101BE000126922F001024FF0E0231A6100229A618B
:101BF000704700001400002000127A002A00002024
:101C00002C000020014600BF704700BF494A1288DF
:101C100002F04002002AF9D0C2B2464B1B1D1A80C6
:101C2000704710B586B00446012144F2040000F06C
:101C300033FC4FF40070ADF8140003208DF816004B
:101C400018208DF8170005A93B4800F069F94FF4FA
:101C50008060ADF8140004208DF8170005A93648FF
:101C600000F05EF925208DF8000003208DF80100BA
:101C70008DF8020001208DF80300684600F087F817
:101C800001940020ADF80800ADF80A00ADF80C0092
:101C9000ADF810000C20ADF80E0001A9254801F0A8
:101CA000B0FB012240F22551224801F042FC012103
:101CB000204801F032FC06B010BD10B540F22551AD
:101CC0001C4801F01BFD10B31A4801F097FCC4B288
:101CD0001A48008800F40040C8B91848008800F489
:101CE000804060B10A2C03D000201449088020E015
:101CF0001248008840F400401049088019E00D2C7B
:101D000006D10E48008840F480400C49088010E05D
:101D10000A480088C0F30D0009490C5407480088A0
:101D2000401C0649088008460088C72801DD0020BD
:101D3000088010BD00380140000801403400002038
:101D4000FE0400200948804709480047FEE7FEE7F7
:101D5000FEE7FEE7FEE7FEE7FEE7FEE7FEE7FEE75B
:101D600004480549054A064B70470000C3040008B3
:101D70003101000828060020280C00202808002037
:101D80002808002031490143314A1160704770B57D
:101D9000002100230F22C47804B32D4C246804F4DE
:101DA000E064C4F5E064210AC1F10403CA40447848
:101DB00004FA03F18478144021430901254C067884
:101DC000A155047804F01F050124AC4005786D117D
:101DD000AD0005F1E025C5F8004109E0047804F004
:101DE0001F050124AC401C4D0678761145F82640AD
:101DF00070BD1A4A0A400243154B1B1F1A607047F8
:101E000039B1134A121D12680243114B1B1D1A608F
:101E100006E00F4A121D126882430D4B1B1D1A600B
:101E20007047042808D14FF0E021096941F004010E
:101E30004FF0E022116107E04FF0E021096921F045
:101E400004014FF0E0221161704700000000FA0524
:101E50000CED00E000E400E080E100E080FFFF1F07
:101E600010B50446CC48844208D10121042000F07A
:101E70002DFB0021042000F029FB46E0C7488442E6
:101E800008D10121082000F021FB0021082000F0EA
:101E90001DFB3AE0C248844208D10121102000F025
:101EA00015FB0021102000F011FB2EE0BD488442FC
:101EB00008D10121202000F009FB0021202000F0A2
:101EC00005FB22E0B848844208D10121402000F0FF
:101ED000FDFA0021402000F0F9FA16E0B3488442F0
:101EE00008D10121802000F0F1FA0021802000F0CB
:101EF000EDFA0AE0AE48844207D10121801500F0D6
:101F0000E5FA0021A01500F0E1FA10BD10B501219D
:101F1000084600F0DBFA0021012000F0D7FA10BDDE
:101F20002DE9F04102460025002600200023002470
:101F3000002791F803C00CF00F0591F803C00CF0D6
:101F4000100CBCF1000F03D091F802C04CEA05055B
:101F500091F800C0BCF1000F31D0146800202BE0D4
:101F60004FF0010C0CFA00F3B1F800C00CEA0306C4
:101F70009E4220D183004FF00F0C0CFA03F7BC43B4
:101F800005FA03FC4CEA040491F803C0BCF1280FE5
:101F900006D14FF0010C0CFA00FCC2F814C00AE0A4
:101FA00091F803C0BCF1480F05D14FF0010C0CFAB9
:101FB00000FCC2F810C0401C0828D1D31460B1F84E
:101FC00000C0BCF1FF0F34DD546800202EE000F1AA
:101FD000080C4FF0010808FA0CF3B1F800C00CEA45
:101FE00003069E4221D183004FF00F0C0CFA03F739
:101FF000BC4305FA03FC4CEA040491F803C0BCF1AD
:10200000280F05D100F1080C08FA0CF8C2F814806A
:1020100091F803C0BCF1480F07D100F1080C4FF054
:10202000010808FA0CF8C2F81080401C0828CED32A
:102030005460BDE8F0814FF6FF710180022181708C
:102040000421C17070470246002093680B400BB119
:10205000012000E0002070470146886880B2704788
:1020600002460020D3680B400BB1012000E00020A5
:1020700070470146C86880B270470161704741618E
:1020800070470AB1016100E041617047C16070476B
:102090004FF480320A438261816182618269826980
:1020A000704702460020434B18684FF68073184073
:1020B00040EA021008433F4B186070473E49C86130
:1020C0007047F0B50A46002300240021002500F0E7
:1020D0000046B6F1004F02D1364EF16901E0354EAF
:1020E0007168C0F3034583B200F44016B6F5401F93
:1020F00008D121F070612F4E766826F070662D4F62
:102100007E6012E000F48016B6F5801F06D103262B
:1021100006FA05F4A14341F0706106E0460D360170
:1021200003FA06F6B14341F0706122B1460D360163
:1021300003FA06F6314300F00046B6F1004F02D133
:102140001C4EF16101E01B4E7160F0BD30B5002204
:102150008B071C0F0F2303FA04F2164B08338C1065
:1021600053F824309343134C08348D1044F8253031
:1021700023468C1053F824308C07240F00FA04F403
:1021800023430C4C08348D1044F8253030BD0A49E7
:10219000DC3108607047000000080140000C01407D
:1021A000001001400014014000180140001C0140D3
:1021B000002001400000014000002042DF4800688C
:1021C00040F00100DD49086008464068DC490840ED
:1021D000DA49486008460068DA490840D74908608B
:1021E0000846006820F4802008600846406820F413
:1021F000FE0048604FF41F0088607047CF490968AF
:1022000021F48031CD4A11601146096821F4802102
:102210001160B0F5803F03D0B0F5802F0ED106E0FD
:10222000C649096841F48031C44A116007E0C349D6
:10223000096841F4A021C14A116000E000BF00BF5D
:10224000704710B501460022002300204A11012AE0
:1022500002D1BA4C236806E0022A02D1B74C236AA5
:1022600001E0B64C636A01F01F02012494401C4057
:102270000CB1012000E0002010BD38B50020009016
:102280000024002500BF3120FFF7DBFF0546009842
:10229000401C00900098B0F5A06F01D0002DF2D046
:1022A0003120FFF7CEFF08B1012400E000242046D2
:1022B00038BD01460020A14A106820F0F80040EA2D
:1022C000C10010607047A0490860704702460020B6
:1022D0009A4B586820F47C1042EA01031843974B4C
:1022E0005860704798490866704701460020934A35
:1022F000506820F003000843506070478F484068E2
:1023000000F00C007047014600208C4A506820F015
:10231000F00008435060704701460020874A50682B
:1023200020F4E06008435060704701460020834A73
:10233000506820F4605040EAC1005060704729B1F5
:102340007E4A527A02437D4B5A7204E07B4A527AAB
:1023500082437A4B5A7270477B49D8310860704784
:1023600001460020754A506820F440400843506000
:1023700070470021714A20321170704A82F8201093
:10238000012802D004280AD104E001216B4A20323E
:10239000117005E00521694A2032117000E000BF8C
:1023A00000BF70476949086070476449096A014382
:1023B000624A11627047654944390860704730B518
:1023C00000210022002400235C4D6D6805F00C0103
:1023D00021B1042905D0082923D105E05C4D056011
:1023E00022E05B4D05601FE0544D6D6805F47012EE
:1023F000524D6D6805F48034022505EB92421CB9FC
:10240000544D554305600BE04C4D6D6805F40035A7
:102410001DB1504D5543056002E04D4D55430560DB
:1024200002E04B4D056000BF00BF444D6D6805F0F4
:10243000F0010909484D6B5C0568DD4045603F4D82
:102440006D6805F4E061090A434D6B5C4568DD4049
:1024500085603A4D6D6805F46051C90A3E4D6B5C6C
:102460004568DD40C560354D6D6805F44041890B18
:102470003A4D6B5CC568B5FBF3F5056130BD29B11C
:102480002E4A526902432D4B5A6104E02B4A52698D
:1024900082432A4B5A61704729B1284A9269024304
:1024A000264B9A6104E0254A92698243234B9A6144
:1024B000704729B1214AD2690243204BDA6104E016
:1024C0001E4AD26982431D4BDA61704729B11B4A0B
:1024D000D2680243194BDA6004E0184AD26882439A
:1024E000164BDA60704729B1144A12690243134B44
:1024F0001A6104E0114A12698243104B1A61704755
:1025000012494039086070470F49C86470470B4949
:10251000C87170470948406A40F0807007494862B6
:10252000704701460020054A92680A400AB101201E
:1025300000E0002070470149887270470010024097
:102540000000FFF8FFFFF6FE000042428004424216
:1025500000127A0000093D003600002046000020ED
:1025600010B50446FE48844208D10121C014FFF78B
:10257000ADFF0021E014FFF7A9FFC4E0B4F1804FE4
:1025800008D101210846FFF7AEFF00210120FFF727
:10259000AAFFB8E0F348844208D101210220FFF7E6
:1025A000A2FF00210220FFF79EFFACE0EE4884422C
:1025B00008D101210420FFF796FF00210420FFF736
:1025C00092FFA0E0E948844208D101210820FFF7EA
:1025D0008AFF00210820FFF786FF94E0E448844248
:1025E00008D101211020FFF77EFF00211020FFF706
:1025F0007AFF88E0DF48844208D101212020FFF7DC
:1026000072FF00212020FFF76EFF7CE0DA48844251
:1026100008D101214014FFF759FF00216014FFF792
:1026200055FF70E0D548844209D10121C804FFF765
:102630004DFF00214FF40020FFF748FF63E0D04832
:10264000844209D101210805FFF740FF00214FF422
:102650008010FFF73BFF56E0CA48844209D10121B0
:102660004805FFF733FF00214FF40010FFF72EFF5E
:1026700049E0C548844208D101214020FFF733FFDB
:1026800000214020FFF72FFF3DE0C048844208D1E1
:1026900001218020FFF727FF00218020FFF723FF83
:1026A00031E0BB48844208D101218015FFF71BFFB0
:1026B0000021A015FFF717FF25E0B648844209D195
:1026C00001210804FFF702FF00214FF48030FFF7DB
:1026D000FDFE18E0B048844209D101214804FFF70B
:1026E000F5FE00214FF40030FFF7F0FE0BE0AB48A1
:1026F000844208D101218804FFF7E8FE00214FF44D
:102700008020FFF7E3FE10BD00220288944B984220
:102710000ED0994B98420BD0B0F1804F08D0914B1E
:10272000984205D0904B984202D0904B984204D1E9
:102730004FF68F731A404B881A438D4B984207D03F
:102740008C4B984204D04FF6FF431A40CB881A4373
:1027500002808B8883850B880385814B98420BD040
:10276000854B984208D08B4B984205D08A4B9842B3
:1027700002D08A4B984201D10B7A038601238382CF
:10278000704770B5002400220023058C4FF6FE76BA
:1027900035400584028C8388048B4FF68F752C405E
:1027A000B51E2C400D882C43751E2A400D892A43E6
:1027B0004D882A436A4DA8420BD06F4DA84208D0DD
:1027C000744DA84205D0744DA84202D0734DA84262
:1027D00013D14FF6F7752A404D892A434FF6FB7502
:1027E0002A408D882A434FF6FF652B404FF6FF5550
:1027F0002B408D892B43CD892B4383800483CD8847
:102800008586028470BD70B5002400220023058CEB
:102810004FF6EF7635400584028C8388048B48F6AA
:10282000FF752C404FF6FF452C400D884FF6FF7684
:1028300006EA05252C434FF6DF752A400D8906EA86
:1028400005152A434D8806EA05152A43444DA8423A
:1028500002D0494DA8421DD14FF67F752A404D89BF
:102860004FF6FF7606EA05152A434FF6BF752A4054
:102870008D8806EA05152A434FF6FF352B404FF2A7
:10288000FF752B408D8906EA85052B43CD8906EA25
:1028900085052B4383800483CD880587028470BD22
:1028A00070B5002400220023058C4FF6FF663540EA
:1028B0000584028C8388848B4FF68F752C404FF6ED
:1028C000FC752C400D882C434FF6FF552A400D898E
:1028D0004FF6FF7606EA05252A434D8806EA0525C8
:1028E0002A431F4DA84202D0234DA8421DD14FF2CA
:1028F000FF752A404D894FF6FF7606EA05252A43E3
:102900004FF6FF352A408D8806EA05252A434EF604
:10291000FF752B404DF6FF752B408D8906EA051596
:102920002B43CD8906EA05152B4383808483CD880C
:102930008587028470BD70B5002200230024058CB9
:102940004EF6FF7635400584038C8488828B48F6EA
:10295000FF752A404FF6FF452A400D8820E0000011
:10296000002C01400004004000080040000C004022
:10297000001000400014004000340140004C0140B1
:10298000005001400054014000180040001C00406D
:102990000020004000400140004401400048014048
:1029A0004FF6FF7606EA05252A434DF6FF752B40C4
:1029B0000D8906EA05352B434D8806EA05352B437C
:1029C000FA4DA84202D0FA4DA84208D14BF6FF7545
:1029D0002C408D894FF6FF7606EA85152C438480BE
:1029E0008283CD88A0F84050038470BD828B4FF263
:1029F000FF331A408283828B4FF6FF7303EA012371
:102A00001A4382837047F0B50C4615460022002118
:102A10000026078C4EF6FF7C07EA0C070784828BA2
:102A2000018C4FF6FF7707EA043640F6FF473A403D
:102A30004FF6FF7707EA05273A434FF6FF7707EA95
:102A400003373A43D94FB8420ED0D94FB8420BD0D2
:102A5000B0F1804F08D0D74FB84205D0D64FB8421A
:102A600002D0D64FB84206D14DF6FF77394046F432
:102A70008057394305E047F6FF57394044F4805703
:102A8000394382830184F0BD828B4FF6F3731A4081
:102A90008283828B0A4382837047F0B50C461546C9
:102AA000002200210026078C4FF6FF6C07EA0C0776
:102AB0000784828B018C4FF6FF7707EA04264FF6D6
:102AC0000C773A404FF6FF7707EA03172F433A4354
:102AD000B64FB8420ED0B64FB8420BD0B0F1804FCF
:102AE00008D0B44FB84205D0B34FB84202D0B34F6C
:102AF000B84206D14FF6FF57394046F48077394344
:102B000005E04FF2FF57394044F480773943828320
:102B10000184F0BD028B4FF2FF331A400283028B17
:102B20004FF6FF7303EA01231A4302837047F0B59F
:102B30000C461546002200210026078C4FF6EF7C3C
:102B400007EA0C070784028B018C4FF6FF7707EA30
:102B5000041640F6FF473A404FF6FF7707EA03377F
:102B60003A434FF6FF7707EA05273A438F4FB842BB
:102B70000ED08F4FB8420BD0B0F1804F08D08D4FA0
:102B8000B84205D08C4FB84202D08C4FB84206D123
:102B90004FF6DF77394046F01007394305E04FF62E
:102BA0005F77394044F01007394302830184F0BD58
:102BB000028B4FF6F3731A400283028B0A4302839F
:102BC0007047F0B50C46154600220021068C4FF6E2
:102BD000FE773E400684028B018C4FF60C76324025
:102BE0007E1C06EA03162E433243704EB0420ED0CE
:102BF0006F4EB0420BD0B0F1804F08D06D4EB04256
:102C000005D06D4EB04202D06C4EB04206D14FF6A8
:102C1000FD76314044F00106314305E04FF6F5768C
:102C2000314044F00106314302830184F0BD70B5A8
:102C300005460C465D4885420ED05D4885420BD066
:102C4000B5F1804F08D05B48854205D05A4885428F
:102C500002D05A48854200D100E000BF208850B918
:102C60002389A28861882846FFF7ABFFE1882846C0
:102C7000FFF79EFF25E0208804280AD12389A28837
:102C800061882846FFF753FFE1882846FFF742FF97
:102C900017E0208808280AD12389A288618828465D
:102CA000FFF7FBFEE1882846FFF7EEFE09E02389E7
:102CB000A28861882846FFF7A6FEE1882846FFF72C
:102CC00095FE70BD2DE9F04105460C460026012712
:102CD000608808B9022600E00026A088012801D1FA
:102CE000022700E001272088A0B92389A2886188F3
:102CF0002846FFF766FFE1882846FFF759FF23893A
:102D00003A4631462846FFF712FFE1882846FFF78A
:102D100001FF13E02389A28861882846FFF707FF97
:102D2000E1882846FFF7F6FE23893A4631462846D1
:102D3000FFF747FFE1882846FFF73AFFBDE8F0813B
:102D40000A884B881A438B881A43CB881A430B890D
:102D50001A434B891A438B891A43A0F844207047C1
:102D60004FF6FF71818000210180C1804180017296
:102D700070470021018041808180C18001814181B3
:102D80008181C181704700210180418001218180C2
:102D90000021C18001817047002101804180818034
:102DA000C18001814181818170470000002C014078
:102DB000003401400004004000080040000C0040C6
:102DC00021B1028842F00102028004E002884FF63D
:102DD000FE731A400280704731B1B0F8442042F4CB
:102DE0000042A0F8442005E0B0F84420C2F30E02EF
:102DF000A0F8442070471AB183890B43838102E015
:102E000083898B43838170478182704741EA020343
:102E1000A0F8483070471AB183890B43838102E0E0
:102E200083898B438381704701894FF6F872114083
:102E3000018170470A46002101894FF68F731940BE
:102E400011430181704730B504460D46294620469E
:102E5000FFF7F0FF208940F00700208130BD2DE909
:102E6000F04104460D4616461F46602D06D13B46EE
:102E7000012231462046FFF75AFE05E03B4601227B
:102E800031462046FFF79DFE29462046FFF7D2FF38
:102E9000208940F007002081BDE8F08130B50C4664
:102EA00000210189C9B24FF6FF7505EA03251543D4
:102EB00025432943018130BD2DE9F04105460E46E9
:102EC00017469846002443463A4631462846FFF7BF
:102ED000E5FF2C894FF6F870044044F007044FF6E4
:102EE0008F70044044F070042C81BDE8F081F0B58F
:102EF00004460D4616461F463B46324629462046A6
:102F0000FFF7CCFF208940F480402081F0BD01858F
:102F1000828270470A46002101884FF68F7319405C
:102F2000114301807047F0B50C4615461E4600213E
:102F3000002200230189028B038C4FF6F877394079
:102F400021434FF6FC473A4040F201173A434FF60F
:102F5000DD773B404FF6FF7707EA06172F433B43E9
:102F6000018102830384F0BD0A460021018B4FF6E4
:102F70008F7319401143018370470A460021018B6A
:102F800048F6FF7319404FF6FF7303EA0223194313
:102F9000018370470A460021818B4FF68F731940D9
:102FA0001143818370470A460021818B48F6FF73E5
:102FB00019404FF6FF7303EA0223194381837047D8
:102FC00021B1028842F08002028004E002884FF6BC
:102FD0007F731A400280704721B1828842F0040258
:102FE000828004E082884FF6FB731A40828070472B
:102FF00021B1828842F00802828004E082884FF684
:10300000F7731A408280704721B1828842F0010232
:10301000828004E082884FF6FE731A4082807047F7
:103020000A460021018B4FF6F773194011430183C3
:1030300070470A460021018B4FF2FF7319404FF68B
:10304000FF7303EA02231943018370470A460021F4
:10305000818B4FF6F77319401143818370470A46FD
:103060000021818B4FF2FF7319404FF6FF7303EA83
:1030700002231943818370470A460021018B4FF6D2
:10308000FB7319401143018370470A460021018BED
:103090004FF6FF3319404FF6FF7303EA022319433B
:1030A000018370470A460021818B4FF6FB7319405C
:1030B0001143818370470A460021818B4FF6FF330D
:1030C00019404FF6FF7303EA0223194381837047C7
:1030D0000A460021018B4FF67F731940114301838B
:1030E00070470A460021018BC1F30E014FF6FF73B2
:1030F00003EA02231943018370470A460021818BAA
:103100004FF67F7319401143818370470A460021AF
:10311000818BC1F30E014FF6FF7303EA02231943BB
:10312000818370470A460021018C4FF6FD731940D8
:103130001143018470470A460021018C4FF6F77352
:1031400019401143018470470A460021018C4FF653
:10315000DF7319404FF6FF7303EA0213194301842A
:1031600070470A460021018C4FF67F7319404FF6D5
:10317000FF7303EA02131943018470470A460021D2
:10318000018C4FF6FF5319404FF6FF7303EA0223F9
:103190001943018470470A460021018C4FF2FF73E6
:1031A00019404FF6FF7303EA022319430184704765
:1031B0000A460021018C4DF6FF7319404FF6FF734C
:1031C00003EA023319430184704730B50023012418
:1031D0008C40A3B2048C9C430484048C02FA01F555
:1031E000ADB22C43048430BD30B5002304248C40A0
:1031F000A3B2048C9C430484048C02FA01F5ADB2A2
:103200002C43048430BD70B50346002000241846CA
:10321000183001258D40ACB21D8CA5431D8409B129
:10322000082909D100EB6100056825F070050560EB
:103230000568154305600EE00D1FC5F34E052844D3
:10324000056825F4E045056005684FF6FF7606EA57
:1032500002263543056070BD21B1028842F00202AA
:10326000028004E002884FF6FD731A400280704726
:1032700021B1028842F00402028004E002884FF685
:10328000FB731A400280704721B1828842F08002AD
:10329000828004E082884FF67F731A4082807047F4
:1032A00002884FF6F7731A40028002880A430280B0
:1032B000704782884FF68F731A40828082880A4353
:1032C0008280704702894FF6F8731A4002810289A2
:1032D0000A430281704702894FF67F731A400281C8
:1032E00002890A4302817047818470478185704753
:1032F000818670470187704781877047A0F840102A
:10330000704702884FF6FF431A40028002880A4342
:10331000028070470146888E70470146088F7047CB
:103320000146888F70470146B1F84000704701465A
:10333000888C70470146088D704702460020138A2A
:103340000B400BB1012000E000207047CA4302820D
:10335000704730B50246002000230024158A05EA94
:103360000103958905EA010413B10CB1012000E0C5
:10337000002030BDCA4302827047000010B50446E9
:10338000FB48844209D101218803FFF79FF80021FF
:103390004FF48040FFF79AF832E0F648844209D1B2
:1033A00001214804FFF79FF800214FF40030FFF798
:1033B0009AF825E0F048844209D101218804FFF7FA
:1033C00092F800214FF48020FFF78DF818E0EB48C9
:1033D000844209D10121C804FFF785F800214FF488
:1033E0000020FFF780F80BE0E548844208D1012176
:1033F0000805FFF778F800214FF48010FFF773F805
:1034000010BD2DE9F04786B005460E460024A246C1
:1034100000BFA1460027B08900B100BF2F462C8A0B
:103420004CF6FF700440F08804432C82AC894EF6C1
:10343000F3100440B088318908437189084304437C
:10344000AC81AC8A4FF6FF400440B0890443AC82A3
:1034500001A8FEF7B4FFC648874202D1DDF810A0EC
:1034600001E0DDF80CA0A88900F4004040B10AEBAF
:10347000CA0000EB0A1031684900B0FBF1F807E020
:103480000AEBCA0000EB0A1031688900B0FBF1F8C2
:103490006420B8FBF0F004012009642101FB1089CD
:1034A000A88900F4004040B1322000EBC900B0FB15
:1034B000F1F000F00700044308E0322000EB0910AF
:1034C0006421B0FBF1F000F00F0004432C8106B042
:1034D000BDE8F0874FF41651016000218180C18062
:1034E00001810C21418100218181704710B5024684
:1034F0000020108A4FF2FF0318400B884C882343AA
:103500008C882343CC8823431843108210BD0021AC
:10351000018041808180C180704721B1828942F45D
:103520000052828104E082894DF6FF731A40828145
:103530007047F0B50346002400260025002040F621
:103540006A17B94200D100BF1846C1F3421401F016
:103550001F06012707FA06F5012C01D10C3004E003
:10356000022C01D1103000E014301AB107682F434B
:10357000076002E00768AF430760F0BD1AB1838AB5
:103580000B43838202E0838A8B4383827047028AE3
:103590004FF6F0731A400282028A0A430282704791
:1035A00082894FF2FF731A40828182890A438281A5
:1035B000704721B1828942F00202828104E082894F
:1035C0004FF6FD731A4082817047028A4FF6DF730F
:1035D0001A400282028A0A430282704721B1028A9B
:1035E00042F48042028204E0028A4BF6FF731A40E2
:1035F00002827047C1F308028280704701468888C2
:10360000C0F308007047818941F001018181704752
:10361000028BD2B20283028B42EA012202837047FC
:10362000028B02F47F420283028B0A4302837047BB
:1036300021B1828A42F02002828204E0828A4FF61F
:10364000DF731A408282704721B1828A42F01002F1
:10365000828204E0828A4FF6EF731A4082827047BA
:1036600021B1828A42F00802828204E0828A4FF607
:10367000F7731A408282704721B1828942F4004276
:10368000828103E08289C2F30E028281704721B1F8
:10369000828A42F40062828204E0828A4FF2FF73DF
:1036A0001A4082827047828A4FF6FB731A408282E8
:1036B000828A0A438282704721B1828A42F00202E2
:1036C000828204E0828A4FF6FD731A40828270473C
:1036D00002460020B1F5007F00D100BF13880B40E7
:1036E0000BB1012000E00020704701F40072B2F538
:1036F000007F00D100BFCA430280704770B5024608
:10370000002400230025002040F66A16B14200D1B3
:1037100000BFC1F3421501F01F03012606FA03F3AF
:10372000012D02D19689334006E0022D02D1168A7E
:10373000334001E0968A33400C12012606FA04F465
:103740001688344013B10CB1012000E0002070BD98
:1037500010B50022002340F66A14A14200D100BF38
:103760000A1201249440A3B2DC43048010BD00007F
:10377000003801400044004000480040004C004038
:103780000050004010B50446FA48844208D1012197
:103790004015FEF79BFE00216015FEF797FE17E02F
:1037A000F548844208D101210015FEF78FFE002163
:1037B0002015FEF78BFE0BE0F048844208D1012172
:1037C000C803FEF783FE00214FF40040FEF77EFEA3
:1037D00010BD30B50246002000235068E84C204060
:1037E0000D790C6844EA0524204350609068E54C4C
:1037F0002040D1E902542C434D7944EA450420434A
:103800009060D06A20F470000C7C641EE4B2234304
:1038100040EA0350D06230BD002101600171417166
:103820008160C16001210174704721B1826842F05A
:103830000102826003E0826822F001028260704728
:1038400021B1826842F48072826003E0826822F4CF
:1038500080728260704710B50023CBB21AB1446801
:103860001C43446002E044689C43446010BD81688E
:1038700041F0080181607047014600208A6802F02B
:1038800008020AB1012000E000207047816841F081
:10389000040181607047014600208A6802F004023A
:1038A0000AB1012000E00020704721B1826842F493
:1038B000A002826003E0826822F4A0028260704766
:1038C000014600208A6802F480020AB1012000E06B
:1038D0000020704710B50A4600210023416821F4FA
:1038E0006041531E41EA4331416010BD21B142683D
:1038F00042F40062426003E0426822F400624260E7
:103900007047F0B504460D4600200021092D11DD59
:10391000E068A5F10A0606EB4607072606FA07F156
:103920008843A5F10A0606EB460603FA06F10843AA
:10393000E0600CE0206905EB4507072606FA07F171
:10394000884305EB450603FA06F108432061072A80
:103950000FDA606B561E06EB86071F2606FA07F184
:103960008843561E06EB860605FA06F10843606397
:1039700022E00D2A0FDA206BD61F06EB86071F26E2
:1039800006FA07F18843D61F06EB860605FA06F10C
:103990000843206310E0E06AA2F10D0606EB8607FB
:1039A0001F2606FA07F18843A2F10D0606EB8606EC
:1039B00005FA06F10843E062F0BD21B1826842F4E5
:1039C0008012826003E0826822F480128260704775
:1039D0000146C86C80B2704766484C30006870473A
:1039E00021B1426842F48062426003E0426822F4FE
:1039F00080624260704721B1426842F48052426066
:103A000003E0426822F48052426070470A46002177
:103A1000816821F4E04111438160704721B18268DF
:103A200042F40042826003E0826822F40042826035
:103A3000704721B1826842F40212826003E082681A
:103A400022F4021282607047014600208A6802F464
:103A500000120AB1012000E000207047F0B50446D2
:103A60001546002000220026092911DDE068A1F199
:103A70000A0707EB470C072707FA0CF29043A1F15E
:103A80000A0707EB470703FA07F21043E0600CE070
:103A9000206901EB410C072707FA0CF2904301EB78
:103AA000410703FA07F210432061A06BC0F30156EF
:103AB000EF1C06F1010CA7EB0C0707EB870C1F2787
:103AC00007FA0CF29043EF1C06F1010CA7EB0C0770
:103AD00007EB870701FA07F21043A063F0BD10B5AA
:103AE0000A4600210023816B21F44011531E41EA54
:103AF0000351816310BD08B5002300930090009B23
:103B00000B440093009B1A6008BD08B502460020D4
:103B10000090009201F12800009B1844009000984A
:103B2000006880B208BD0A4600214168164B194062
:103B30001143416070474162826270470A4600212A
:103B4000416821F01F0111434160704740B10949AC
:103B50000831096841F40001064A0832116007E0A3
:103B600004490831096821F40001024A0832116051
:103B7000704700000024014000280140003C014043
:103B8000FFFEF0FFFDF7F1FFFFFD3FFF02460020C3
:103B900013680B400BB1012000E000207047CA43BE
:103BA0000260704770B502460020002300240B120B
:103BB0005568CEB205EA060415681D4015B10CB172
:103BC000012000E0002070BD00220A12D3430360F0
:103BD0007047000001684FF6FE721140016000213D
:103BE000016041608160C1608D49884208D18C4983
:103BF0000839496841F00F01894A083A51608AE062
:103C000087491431884208D185490839496841F00B
:103C1000F001834A083A51607DE0814928318842A9
:103C200008D17F490839496841F470617C4A083AF3
:103C3000516070E07A493C31884208D178490839AE
:103C4000496841F47041764A083A516063E074492A
:103C50005031884208D172490839496841F47021CD
:103C60006F4A083A516056E06D496431884208D184
:103C70006B490839496841F47001694A083A516052
:103C800049E067497831884208D16549083949686F
:103C900041F07061624A083A51603CE061498842F3
:103CA00006D1011F096841F00F01021F116032E0C7
:103CB0005C491431884208D15A49091F096841F00A
:103CC000F001584A121F116025E0564928318842F8
:103CD00008D15449091F096841F47061514A121F03
:103CE000116018E04F493C31884208D14D49091F05
:103CF000096841F470414B4A121F11600BE04949B9
:103D00005031884207D14749091F096841F47021A1
:103D1000444A121F1160704710B50022026847F62E
:103D2000F0739A430C6A8B6823430C6923434C69F4
:103D300023438C692343CC6923434C6A23438C6A15
:103D400023431A430260CB6843600B6883604B686F
:103D5000C36010BD0021016041608160C1600161EC
:103D600041618161C161016241628162704721B13B
:103D7000026842F00102026004E002684FF6FE733E
:103D80001A40026070471AB103680B43036002E0F7
:103D900003688B4303607047416070470146486881
:103DA00080B2704701460020002201F080531BB111
:103DB0001C4B083B1A6802E0194B083B1A6802EAE0
:103DC00001030BB1012000E00020704700F080519A
:103DD00019B11449091F086002E011490839486007
:103DE000704701460020002201F080531BB10D4BAB
:103DF000083B1A6802E00A4B083B1A6802EA010312
:103E00000BB1012000E00020704700F0805119B193
:103E10000449091F086002E00149083948607047F9
:103E20000800024008040240002044490860091DBF
:103E30000860091D0860091D086041483F491431A8
:103E40000860704700213D498279002A3AD00A462D
:103E5000126803689A430B461A600A1D12680368C9
:103E60009A430B1D1A60027911440A6803681A43C9
:103E70000A60324A0832126803689A432F4B0833AB
:103E80001A601A1D126803689A432C4B0C331A608F
:103E90004279102A0ED11A1F126803681A43274B61
:103EA00008331A601A1D126803681A43234B0C3337
:103EB0001A600DE02149427911440A6803681A43E7
:103EC0000A6005E0027911440A6803689A430A60AF
:103ED00070470021016001710C2141710021817145
:103EE00070471649103109680143144A10321160B5
:103EF000704701460020114A143212680A400AB184
:103F0000012000E0002070470C4914310860704720
:103F1000014600200022094B1B6803EA0102074BFF
:103F200014331B680B4013B10AB1012000E00020DC
:103F300070470249143108607047000000040140D6
:103F4000FFFF0F0010B50446BE48844208D101218E
:103F50008014FEF7BBFA0021A014FEF7B7FA16E0B2
:103F6000B948844208D101210014FEF7BCFA0021AF
:103F70002014FEF7B8FA0AE0B448844207D10121C0
:103F8000C013FEF7B0FA0021E013FEF7ACFA10BD43
:103F900010B50022028802F441520B884C8823435A
:103FA0008C882343CC8823430C8923434C892343A7
:103FB0008C892343CC8923431A430280838B4FF29D
:103FC000FF74234083830B8A038210BD2DE9F04FD9
:103FD00085B005460C464FF0000902274FF0000857
:103FE0004FF0010B0026B246A88B4FF2400108406B
:103FF000A88302202884B5F81C90A068022801D16B
:1040000000BF38E0A08810B94FF0010B01E04FF07D
:10401000020B8D48854200D100E000BF6846FEF7E4
:10402000CEF9DDF800A0E088B0F5007F0AD14FEAB4
:104030001A2000EB80004000A168B0FBF1F0401DA9
:1040400086B20BE04FEA4B10BAFBF0F000EB8000B9
:104050004000A168B0FBF1F0401D86B20A20B6FB1B
:10406000F0F606F00108A6EB0800C0F34F074FF684
:10407000FF7000EA0828022F01DBFF2F02DD022774
:104080004FF00008E08840EA080038432884A08800
:10409000A1890843618808432188084340F40060EF
:1040A00040EA0909A5F81C9005B0BDE8F08F002191
:1040B000018041808180C180018141818181C181F4
:1040C0000721018270470021018041808180C180E9
:1040D0000221816000218181704721B1028842F074
:1040E0004002028004E002884FF6BF731A4002804B
:1040F000704721B1828B42F48062828304E0828B1C
:104100004FF6FF331A408283704730B500240023F6
:104110000C110125A540ABB21AB185881D438580DD
:1041200002E085889D43858030BD1AB183880B43AA
:10413000838002E083888B4383807047818170474E
:104140000146888970474FF6FF62914204D0028889
:1041500042F48072028004E002884FF6FF631A4046
:104160000280704721B1828842F00402828004E01C
:1041700082884FF6FB731A408280704702884FF2A4
:10418000FF731A40028002880A4302807047018848
:1041900041F480510180704721B1028842F40052FD
:1041A000028004E002884DF6FF731A4002807047D7
:1041B00002460020012901D0108B00E0908A704750
:1041C0000146088A7047B1F5804F04D1028842F455
:1041D0008042028004E002884BF6FF731A4002809E
:1041E00070470246002013890B400BB1012000E00C
:1041F00000207047CA4302817047F0B50246002094
:1042000000240023002501F00F070126BE40B4B2B0
:104210000B1101269E40B3B2968806EA0305168963
:10422000264016B10DB1012000E00020F0BD10B510
:10423000002201F00F040123A3409AB2D34303816B
:1042400010BD00000030014000380040003C00403C
:1042500010B501214807FEF746F900214FF0005044
:10426000FEF741F910BD30B5002200235A4C2268F8
:1042700040F6FE748440A243D1E900452C438D688A
:104280002C43CD6844EA050303FA00F42243524C60
:10429000226030BD0021016041608160C1607047D3
:1042A00039B14D4A1268012383401A434A4B1A60C0
:1042B00006E0494A1268012383409A43464B1A603C
:1042C000704741B1444A12684FF4805383401A4307
:1042D000414B1A6007E0404A12684FF48053834014
:1042E0009A433D4B1A60704710B551B13A4A121DBE
:1042F000126804090123A3401A43374B1B1D1A609F
:1043000009E0354A121D126804090123A3409A43AB
:10431000314B1B1D1A6010BD40B12F49091D0968A2
:1043200041F003012C4A121D116007E02A49091DC2
:10433000096821F00301284A121D1160704710B569
:104340003AB1254B1B6801FA00F42343224C236049
:1043500006E0214B1B6801FA00F4A3431E4C2360C6
:1043600010BD08B5002200921B4A009200F108021D
:10437000009B1A440092009A116008BD08B5002203
:104380000092154A009200F11402009B1A44009218
:10439000009A116008BD30B500240023082802D11E
:1043A00042EA012401E042EA01440B4B00F12005FE
:1043B0002B441C6030BD08B5014600200090064823
:1043C00000902C2000EB9100009A1044009000987F
:1043D000006880B208BD0000007400407047000013
:1043E0000FB4044910B503AA029800F0A1F910BC5B
:1043F0005DF814FB300000200FB41CB5074B06AA73
:104400007B4469460090059800F079F900206946E0
:1044100000F088F91CBC5DF814FB000021030000CB
:1044200070B5044685690068C10601D5302600E0F4
:104430002026C00707D070BDD4E90121304690473F
:10444000206A401C20626D1EF6D570BD70B5044612
:1044500085690078C00707D170BDD4E9012120200B
:104460009047206A401C20626D1EF6D570BD00008A
:104470002DE9F0410646002410687529314616A53D
:1044800010D0AFF30080002802DA404213A507E005
:1044900031688A0701D512A502E0490704D511A5A4
:1044A000012401E0AFF3008000210A2206F1240775
:1044B00009E0B0FBF2FCB0FBF2F302FB1C00303071
:1044C00078541846491C0028F3D123462A46304622
:1044D000BDE8F04100F0B5B8000000002D0000007C
:1044E0002B000000200000002DE9F0474FF0000AEB
:1044F00089460446C0F820A02046E1688847002885
:1045000076D0252806D0D4E901219047206A401CA6
:104510002062F1E7E168204600258847C4F81CA026
:1045200006460027C4F818A02A2E09D0304600F00D
:104530006FF938B304EB8708303EC8F8186019E00B
:1045400059F8041B204604EB87029161E168884713
:10455000012F064618D1E069002820DA25F0200551
:104560001DE0D8F8180000EB800006EB4000303862
:10457000C8F818002046E1688847064600F048F968
:104580000028EED1012F0AD02E2E08D12046E16856
:1045900088477F1C0646022F45F02005C4DBA06932
:1045A000002803DA404245F00105A061E80701D088
:1045B00025F01005B6B1A6F14100192802D8203621
:1045C00045F400654A463146204625604D46FBF7D6
:1045D000E9FD58B1012806D0ED1D25F0070000F1D6
:1045E000080989E704E005F1040985E730468AE710
:1045F000206ABDE8F0874FF000020429C0F0128065
:1046000010F0030C00F0A880CCF1040CBCF1020FF8
:1046100018BF00F8012BA8BF20F8022BA1EB0C015A
:1046200000F09AB85FEAC17C24BF00F8012B00F8C3
:10463000012B48BF00F8012B704770477047704747
:1046400070472DE9F0470D4699469246044600F121
:1046500024080168880604D5E06921F01001216072
:1046600000E00120A84201DD471B00E00027A1690E
:104670007A1902EB0900081AA0612078C00602D45A
:104680002046FFF7CDFE002608E0D4E901211AF804
:1046900006009047206A401C761C20624E45F4DBE1
:1046A0002078C0060AD52046FFF7BAFE06E0D4E916
:1046B000012130209047206A401C2062381EA7F15B
:1046C0000107F4DC07E0D4E9012118F80500904760
:1046D000206A401C2062281EA5F10105F3DC20465B
:1046E000FFF7B4FE2078000602D50220BDE8F0876F
:1046F0000120FBE701694A1C02610878704700B598
:104700008FB0CDE901310021059105497944CDE90A
:10471000031011466846FFF7E7FE0FB000BD00002A
:10472000E5FFFFFF0A6802F8010B0A60704700000E
:10473000074B70B50D467B44FFF7E1FF0446284662
:1047400000F02FF810B14FF0FF3070BD204670BD63
:10475000D1D4FFFF4FF0000200B5134694469646B1
:10476000203922BFA0E80C50A0E80C50B1F1200184
:10477000BFF4F7AF090728BFA0E80C5048BF0CC032
:104780005DF804EB890028BF40F8042B08BF704790
:1047900048BF20F8022B11F0804F18BF00F8012B02
:1047A0007047007B00F080007047754600F02CF8E1
:1047B000AE4605006946534620F00700854618B00E
:1047C00020B5FDF7CDFABDE820404FF000064FF0D0
:1047D00000074FF000084FF0000B21F00701AC4636
:1047E000ACE8C009ACE8C009ACE8C009ACE8C00955
:1047F0008D46704710B50446AFF300802046BDE8F3
:104800001040FBF7E1BC000000487047C8050020DD
:1048100030380A2801D2012070470020704700007C
:104820002DE9C04130B4DFF8A0C23CEA111418BF32
:104830003CEA131400F0EC8081EA03051CEA111431
:1048400044EAD57418BF1CEA131500F0C780A4EB26
:1048500005044FF0004545EAC12145EAC32341EA7A
:10486000505143EA525304F17F74994204F50034E5
:104870004FEAC0204FEAC22208BF904200F09C805D
:104880004FEA13650FF24016765D4FEA134506FBBB
:1048900005F7C7F1807706FB07F74FEAD737A7FB85
:1048A00003687642C8F58038A7FB06CE38BFA8F16A
:1048B000010807FB08E64FF0000EA6FB028CE6FBA2
:1048C00003CEDCF1000CCEF1004E38BFAEF1010E8C
:1048D000A6FB0C584FF000074FF00005E6FB0E87D3
:1048E000A1FB08C6A0FB07CE16EB0E0645F100059E
:1048F000E1FB076515F1E04E7EBFA4F580345FEA69
:1049000046066D4116F1800745F100054FEA17276D
:104910004FEA066647EA0567A6F1DE46B6F1805F14
:104920004FEA15251FD9384624F0010C05EBC47158
:10493000BCF1FE6F01EB0C1102D8F0BCBDE80081A8
:1049400024425CBF01F5801E9EEAC47F02D4F0BC05
:10495000BDE80081244238D4F0BCA1F1C041BDE8DB
:10496000004100F0EDB94FEAD22242EA43524FEA49
:10497000D323A7FB02864FEAD02040EA415007FB31
:1049800003661EEA0E0F4FEAD12105FB026658BFEF
:10499000A6EB0056B6EB00564FEA520E4EEAC37E27
:1049A00018EB0E0E56EB530EBDD518EB02085E4108
:1049B0007F1C55F10005B6E74FF480154FF0000756
:1049C0004FF000064FF00008ADE7F0BC4FF00000DC
:1049D00001F1C04101F00041BDE8008111EA0C1F66
:1049E0000CEA131500D00CE013EA0C1F00F0258030
:1049F0004FF00000F0BC81EA030101F00041BDE886
:104A00000081F0BCBDE8004181EA030100F098B9E3
:104A1000F0BCBDE8004170B500F044F9097EFC3EF1
:104A200000F007B881EA03014FF0000001F00041F7
:104A3000704781EA030100F083B9F0BCBDE8004192
:104A40004FF0000021497047FFFDFBF9F7F5F4F244
:104A5000F0EEEDEBE9E8E6E4E3E1E0DEDDDBDAD819
:104A6000D7D5D4D3D1D0CFCDCCCBCAC8C7C6C5C477
:104A7000C2C1C0BFBEBDBCBBBAB9B8B7B6B5B4B38E
:104A8000B2B1B0AFAEADACABAAA9A8A8A7A6A5A479
:104A9000A3A3A2A1A09F9F9E9D9C9C9B9A9999983D
:104AA0009797969595949393929191908F8F8E8EE0
:104AB0008D8C8C8B8B8A898988888787868585846D
:104AC00084838382828181800000FF070000F87F59
:104AD0004FEA1153A3F58063D3F11E03A8BFD3F1AE
:104AE000200C08DB4FF0004242EAC12252EA505249
:104AF00032FA03F0704709420BD4102BC4BF0020D8
:104B0000704703F5787CBCF1FF3F05D04FF0FF30D4
:104B100070474FF00000704770B500F0C3F800BF59
:104B20004992248000207047F0E7B0FA80F310FA31
:104B300003F10AD0C3F11D0303F580634FEA41502E
:104B40004FEA035202EBD12170474FF0000070474B
:104B5000DFF848C170B51CEA111E1EBF1CEA131510
:104B60009EEA0C0F95EA0C0F00F06F8081EA0304B7
:104B700023EA4C134EEAD47E21EA4C1141F4801111
:104B800043F48013AE44A1FB024CA0FB0365AEF1DD
:104B90007F7E361955EB0C05A1FB034C4CF100034D
:104BA000A0FB021C16EB0C06654153F10003094201
:104BB00018BF46F0010613F4007F0BD14FEA033112
:104BC0004FEA0530340341EA155140EA16506FF0C0
:104BD00003020AE04FEAC3214FEAC520F40241EA8A
:104BE000555140EA56506FF0020202EB2E4201EBA3
:104BF000025585EACE710AD05FEA440C18BF24F052
:104C0000004450F1000041F1000120EAD47040F26C
:104C1000FE7C624500D270BDA84214BF4FF08044B4
:104C20004FF04044002E08BF0024BEF1806FA8BFA3
:104C3000A1F1C041BDE8704080F282804FF00000D9
:104C400001F1C04101F0004170479EEA0C0F0CEAEF
:104C5000131518BF95EA0C0F06D04FF0000081EA3B
:104C6000030E0EF0004170BD00F01CF88900013EFB
:104C700000F007B800F009B84FEA430C5FEA5C5C4B
:104C800008D081EA030100F05BB84FEA410C5FEA0B
:104C90005C5CF6D14FF00000014970470000FF074F
:104CA0000000F87F0EF1020E2EF0030E5EF8046B8A
:104CB000364205D4012A43EB030515F5001F12D82F
:104CC000012841EB010C1CF5001F0CD80ED14FEA56
:104CD000D17C15F5001F0CEB4C0C0CF1020C08BF3D
:104CE0004CEBD37C04E04FF0080C01E04FEAD37C9E
:104CF0000CEB4C0526FA05F606F00706B6F1040C97
:104D000006D20EEB860CBDE870404CF0010C6047FB
:104D1000DFE80CF0090B02024FF000414FF00000F9
:104D2000A1F5002170BD19461046012851EB010480
:104D300018BFD4F5001484BF002001F0004170BDFD
:104D40000808A0F500114FEA310170474FF47F0CBD
:104D50001CEAD0121EBF1CEAD11392EA0C0F93EA90
:104D60000C0F00F0858090EA010F48BF42F480727A
:104D700040F4000C41F400002CF07F4120F07F4013
:104D800000B58142A2EB03020FF2081CACEB504EBF
:104D9000C0F100009EF800E04FEA4E0E00FB0EFC52
:104DA00038BF49004FEA2C1C02F5FA020CFB0EF347
:104DB0004FEACE1E4FEA112C4FEAC1210EEB635E83
:104DC00042EB22420EFB0CFC4FEA1C5300FB03118A
:104DD0004FEA112C4FEA01310EFB0CFC4FEADC4C80
:104DE00000FB0C11C14228BF09184CEB03335DF8DE
:104DF00004EB10EB410143EBC250B2F57C0F38BF1E
:104E0000704729D512F0F00F1CBF00F1C04000F030
:104E100000407047008182838485868788898B8CD7
:104E20008D8E8F919293959697999A9C9D9FA0A213
:104E3000A3A5A7A8AAACAEB0B2B3B5B7B9BCBEC063
:104E4000C2C5C7C9CCCED1D4D7D9DCDFE2E6E9EC04
:104E5000F0F3F7FAFE0000004FEA400C0CF1807C02
:104E6000BCF17E4F28BF7047B0F1C04000F02BB9B5
:104E700090EA010F0CEAD11348BF42F480726245F8
:104E800038BF634507D213F47F0F16D080EA0100C4
:104E900000F00040704710B500F0CFF8097EFC3EEE
:104EA00000F005B880EA010000F00040704780EA99
:104EB000010000F0004000F006B912F47F0F04BFBB
:104EC0000248704780EA010000F0FDB80000C07F92
:104ED000C10DD1F19E0206DB4FEA002343F00043EF
:104EE00023FA02F07047004207D54FEA4001B1F1C2
:104EF000FE4F02D24FF00000704710B500F09DF851
:104F000049922480002070476FEA2000704700001B
:104F1000B0FA80F310FA03F2C3F19D030AD0D90569
:104F200001EB1220530638BF704700F1010008BFA3
:104F300020F00100704700004FF47F0C1CEAD012F3
:104F40001EBF1CEAD11392EA0C0F93EA0C0F00F07B
:104F5000478090EA010F48BF42F480724FF0004C46
:104F60004CEA00204CEA012102EB0302A0FB0113F2
:104F7000A2F50002002918BF43F001035B0028BF1F
:104F80004FEA330342EB22425FEA132C4CEBC25050
:104F90002EBFBCEB436FB2F57C0F70474FEA036C3A
:104FA000BCF1004F08BF20F00100B2F57C0F38BF04
:104FB00070470BD582F0FF0212F5803FC8BF7047E3
:104FC00000F1C040D8BF00F00040704700F5000C71
:104FD0005FEA4C0C48BF7047B0F1C04000F073B8B6
:104FE00090EA010F0CEAD11348BF42F48072624587
:104FF00038BF634504D280EA010000F000407047EA
:1050000010B500F01AF800BF8900013E00F007B8A3
:1050100000F009B85FEA410C5FEA1C6C08D080EA36
:10502000010000F050B85FEA400C5FEA1C6CF6D15A
:105030004FF00040A0F5800070470EF1020E2EF0F8
:10504000030E5EF8044B244204D44FEA4102B2F14D
:105050007F4F11D84FEA4003B3F17F4F0CD80ED1E8
:105060004FEAD07CB2F17F4F0CEB4C0C0CF1020CF0
:1050700008BF4CEBD17C04E04FF0080C01E04FEA94
:10508000D17C0CEB4C0324FA03F404F00704B4F1D4
:10509000040C06D20EEB840CBDE810404CF0010C61
:1050A0006047DFE80CF0070802024FF00040A0F56F
:1050B000800010BD0846420018BFD2F1807288BF40
:1050C00000F0004010BDFF2141EAD050C0057047FC
:1050D00000000000000000000000000000000000D0
:1050E0003F400000000000000000300040003000A1
:1050F0004000000009000BC03D000BC03D0009004E
:1051000018C024407FE0224031800000180024C0F5
:105110001B000D803240018003801C4027401C8012
:105120000740004010006000000000000000000088
:105130000000000000001F802040402000004020B0
:1051400020401F8000000000090006001F800600AC
:1051500009000000040004003F8004000400000077
:1051600000100060000000000000000004000400C7
:1051700004000400040000000000004000000000E3
:1051800000000000002001C00600380040000000C0
:105190001F802040204020401F8000000000104061
:1051A0003FC000400000000018C0214022402440C1
:1051B0001840000010802040244024401B80000044
:1051C00002000D0011003FC0014000003C8024405F
:1051D00024402440238000001F8024402440344089
:1051E000038000003000200027C0380020000000AD
:1051F0001B802440244024401B8000001C0022C04F
:10520000224022401F8000000000000008400000F3
:10521000000000000000000004600000000000002A
:10522000000004000A00110020804040090009002D
:105230000900090009000000000040402080110022
:105240000A00040018002000234024001800000079
:105250001F802040274029401F400000004007C019
:1052600039000F0001C0004020403FC024402440CE
:105270001B8000001F802040204020403080000024
:1052800020403FC0204020401F80000020403FC001
:1052900024402E4030C0000020403FC024402E005B
:1052A000300000000F0010802040224033800200B8
:1052B00020403FC0040004003FC020402040204068
:1052C0003FC02040204000000060202020203FC040
:1052D0002000200020403FC024400B0030C0204070
:1052E00020403FC020400040004000C03FC03C0084
:1052F00003C03C003FC0000020403FC00C402300E2
:105300003FC020001F802040204020401F80000020
:1053100020403FC024402400180000001F8021408E
:10532000214020E01FA0000020403FC02440260074
:1053300019C0004018C024402440224031800000A1
:10534000300020403FC020403000000020003F805F
:10535000004000403F80200020003E0001C00700C8
:1053600038002000380007C03C0007C038000000AB
:10537000204039C0060039C02040000020003840DD
:1053800007C0384020000000304021C0264038408F
:1053900020C00000000000007FE04020402000000E
:1053A000000070000C00038000400000000040205E
:1053B00040207FE0000000000000200040002000AE
:1053C000000000000010001000100010001000107D
:1053D000000000004000000000000000000002800B
:1053E0000540054003C0004020003FC00440044089
:1053F00003800000000003800440044006400000D9
:1054000000000380044024403FC0004000000380AF
:105410000540054003400000000004401FC0244038
:1054200024402000000002E00550055006500420F2
:1054300020403FC00440040003C00040000004407E
:1054400027C000400000000000100010041027E0FA
:105450000000000020403FC00140070004C004409D
:10546000204020403FC000400040000007C0040032
:1054700007C0040003C00000044007C0044004004B
:1054800003C000400000038004400440038000008B
:10549000041007F004500440038000000000038063
:1054A0000440045007F00010044007C0024004000C
:1054B00004000000000006400540054004C0000054
:1054C000000004001F80044000400000040007802A
:1054D0000040044007C000400400070004C00180F1
:1054E00006000400060001C0070001C0060000001D
:1054F000044006C0010006C004400000041007106C
:1055000004E00180060004000000044005C00640DD
:10551000044000000000000004007BE04020000088
:10552000000000000000FFF000000000000040202C
:105530007BE00400000000004000800040002000EC
:1055400020004000000000000000000000000000FB
:10555000000000000000000000001FCC000C000054
:10556000000000000000080030006000080030006B
:1055700060000000022003FC1E20022003FC1E200D
:105580000220000000000E1811043FFF10840C7868
:10559000000000000F0010840F3800C00778188446
:1055A0000078000000780F8410C411240E9800E4E5
:1055B000008400080800680070000000000000007F
:1055C0000000000000000000000007E018182004A0
:1055D00040020000000040022004181807E000000C
:1055E000000000000240024001800FF001800240F4
:1055F000024000000080008000800FF800800080E2
:10560000008000000001000D000E000000000000FE
:10561000000000000000008000800080008000800A
:10562000008000800000000C000C00000000000062
:105630000000000000000006001800600180060065
:1056400018002000000007F00808100410040808E3
:1056500007F000000000080408041FFC0004000418
:105660000000000000000E0C1014102410441184DF
:105670000E0C000000000C18100411041104128814
:105680000C700000000000E00320042408241FFC2C
:105690000024000000001F981084110411041088D9
:1056A00010700000000007F0088811041104188829
:1056B0000070000000001C00100010FC13001C0013
:1056C0001000000000000E381144108410841144B2
:1056D0000E38000000000700088C104410440888B1
:1056E00007F00000000000000000030C030C0000A5
:1056F00000000000000000000001010600000000A2
:105700000000000000000080014002200410080892
:1057100010040000022002200220022002200220A9
:1057200002200000000010040808041002200140BC
:105730000080000000000E001200100C106C1080A1
:105740000F00000003E00C1813E4142417C4082809
:1057500007D000000004003C03C41C40074000E4E4
:10576000001C000410041FFC1104110411040E8815
:105770000070000003E00C1810041004100410085E
:105780001C10000010041FFC100410041004080872
:1057900007F0000010041FFC1104110417C41004CA
:1057A0000818000010041FFC1104110017C010009D
:1057B0000800000003E00C181004100410441C78CA
:1057C0000040000010041FFC108400800080108442
:1057D0001FFC10040000100410041FFC100410042F
:1057E0000000000000030001100110011FFE100066
:1057F0001000000010041FFC110403801464181C26
:105800001004000010041FFC100400040004000435
:10581000000C000010041FFC1F0000FC1F001FFCF8
:105820001004000010041FFC0C04030000E010181A
:105830001FFC100007F008081004100410040808EA
:1058400007F0000010041FFC1084108010801080EE
:105850000F00000007F0081810241024101C080A7C
:1058600007F2000010041FFC1104110011C01130D8
:105870000E0C000400000E1C11041084108410444F
:105880001C3800001800100010041FFC1004100049
:105890001800000010001FF8100400040004100499
:1058A0001FF8100010001E0011E0001C0070138093
:1058B0001C0010001FC0103C00E01F0000E0103C66
:1058C0001FC000001004180C163401C001C01634AB
:1058D000180C100410001C00130400FC13041C001E
:1058E000100000000804101C1064108413041C0431
:1058F000101800000000000000007FFE400240027F
:1059000040020000000030000C0003800060001C1A
:105910000003000000004002400240027FFE000041
:105920000000000000000000200040004000400097
:105930002000000000010001000100010001000141
:1059400000010001000040004000200000000000B5
:1059500000000000000000980124014401440144BB
:1059600000FC000410001FFC0088010401040088F2
:1059700000700000000000700088010401040104B0
:105980000088000000000070008801040104110874
:105990001FFC0004000000F80144014401440144DC
:1059A00000C800000000010401040FFC11041104F0
:1059B00011001800000000D601290129012901C9A0
:1059C0000106000010041FFC008401000100010416
:1059D00000FC000400000104190419FC0004000488
:1059E000000000000000000300010101190119FE80
:1059F0000000000010041FFC0024004001B4010C52
:105A0000010400000000100410041FFC0004000446
:105A100000000000010401FC0104010001FC01047C
:105A2000010000FC010401FC0084010001000104EC
:105A300000FC0004000000F801040104010401045A
:105A400000F80000010101FF008501040104008845
:105A500000700000000000700088010401040105CE
:105A600001FF00010104010401FC008401040100A4
:105A700001800000000000CC012401240124012445
:105A80000198000000000100010007F80104010472
:105A900000000000010001F80004000400040108F7
:105AA00001FC0004010001800170000C0010016085
:105AB0000180010001F0010C003001C00030010C38
:105AC00001F0010000000104018C00740170018CE0
:105AD00001040000010101810171000E0018016044
